:0400000007EF00F016
:10000800498254ED05F074EF07F0720ED36E0F0EAF
:10001800C16EF00E936E9290929294809492949402
:10002800D3EC08F0800E376E250E386E000E396E50
:10003800000E3A6EFBEC06F0000E0B6E320E0A6EE6
:100048009FEC08F0000E466E15D046C00AF00B6A09
:100058006AEC09F00001A76FA729D8B40AD0465066
:10006800010DB60EF324D96E000EF420DA6EA7C087
:10007800DFFF462A060E4664E8D7640E0A6E000EB5
:100088000B6E200E0C6E7F0E0D6EB60E0E6E000EF1
:100098000F6E60EC04F0640E0B6E000E0C6EA3EC99
:1000A80007F0000ED3D2CD9042844298429A4292F1
:1000B800429C7DEC09F0000E146E800E156E7F0ECA
:1000C800166E000E83EC08F0060E456EDD0E0B6E04
:1000D8007E0E0C6EA3EC07F0E3D282A042A4E0D21D
:1000E80082A0FED74294070E456E6A0E0B6E7D0EF7
:1000F8000C6EA3EC07F0D4D2CD907DEC09F042B29F
:1001080017D0000E146E710E156E7F0E166E000E4F
:1001180083EC08F0600E0001606FEA0E616F000E5C
:10012800626F000E636F9D0EA86F000EA96F26D038
:1001380042B80ED0000E146E9C0E156E7F0E166E11
:10014800000E83EC08F09D0E0001A86F000E0DD084
:10015800000E146ECE0E156E7F0E166E000E83EC1A
:1001680008F0960E0001A86F000EA96FE80E606FE8
:10017800FD0E616F000E626F000E636F0E0E1BECBA
:1001880008F0C00E1BEC08F054EC09F0000E3E6EAF
:10019800000E3F6E000E406E000E416E000E466E61
:1001A8004280080E456EAC0E0B6E7D0E0C6EA3ECF5
:1001B80007F042B80ED0A8C00AF0A9C00BF0000E94
:1001C8000D6E000E0C6E000E0F6E070E0E6E02EC1A
:1001D80009F08092809064D242A064D03CEC06F092
:1001E8000001A66F50D04650D8B459D046064650A4
:1001F800010DF350A825D96EF450A921DA6E000E2E
:10020800DF6E4650C00F1BEC08F0200EF5EC07F02F
:10021800100E1BEC08F043D04650D8A440D0440E32
:100228000B6E7F0E0C6EA3EC07F0428238D046505E
:10023800C00F1BEC08F0060E1BEC08F04650010D31
:10024800F3500001A825D96EF450A921DA6EA6C092
:10025800DFFF4650010DF350A825D96EF450A921AF
:10026800DA6EDF50F5EC07F0010E0B6EF40E0A6E35
:100278009FEC08F04650C00F1BEC08F0580EF5EC48
:1002880007F0462A0CD00001A651000AD8B407D0BE
:10029800230AD8B4A8D7090AD8B4BED7C8D7050E38
:1002A80046649AD74650010DF3500001A825D96E2F
:1002B800F450A921DA6E000EDF6E640E0A6E000E8D
:1002C8000B6E0D0E0C6E7F0E0D6EA8C00EF0A9C041
:1002D8000FF060EC04F0640E0B6E000E0C6EA3ECD5
:1002E80007F042BA12D0B60E0001A46F000EA56F37
:1002F800080E4518D8A4D4D10B0E456EA50E0B6E6A
:100308007E0E0C6EA3EC07F0CBD142B80DD0080ED0
:100318004518D8A4C5D1100E456E040E0B6E7D0E7F
:100328000C6EA3EC07F0BCD1080E4518D8A4B8D1C0
:100338009D0E0001A46F000EA56F0B0E456EA50E55
:100348000B6E7E0E0C6EA3EC07F0AAD14288000E4D
:10035800436E070E456E4D0E0B6E7C0E0C6EA3ECB5
:1003680007F09ED1CD9042907DEC09F00C0E1BEC6D
:1003780008F0A8C00AF0A9C00BF0A4C00CF0A5C0F2
:100388000DF041EC08F00A500B10D8B408D0690EF3
:100398000B6E7E0E0C6EA3EC07F00C0E57D1000E00
:1003A800436E42A842A20AD0070E456E8B0E0B6E12
:1003B8007D0E0C6EA3EC07F0428A72D142B22DD0AA
:1003C800000E146E620E156E7F0E166E010E83EC13
:1003D80008F0000E146EEF0E156E7F0E166E020EEC
:1003E80083EC08F054EC09F0000E3E6E000E3F6EF0
:1003F800000E406E000E416E880E0001606F130EF5
:10040800616F000E626F000E636FBD0E0B6E7C0E87
:100418000C6EA3EC07F00D0E19D142A841D14298F9
:10042800429A4292260E0B6E7D0E0C6EA3EC07F0DC
:10043800B60E0A6E000E0B6EA8C00CF0A9C00DF027
:1004480041EC08F00A500B10D8B432D0000E146EEC
:10045800B60E156E7F0E166E010E83EC08F0B60E02
:100468000A6E000E0B6EA8C00CF0A9C00DF0EBECE4
:1004780008F0000E0E6E000E0D6EB60E0F6E000E1A
:10048800106EBAEC08F0640E0A6E000E0B6EEC0EDD
:100498000C6E7D0E0D6EB60E0E6E000E0F6E60ECBD
:1004A80004F0640E0B6E000E0C6EA3EC07F009D07E
:1004B800000E146EE60E156E7F0E166E010E83EC9E
:1004C80008F054EC09F0000E3E6E000E3F6E000E70
:1004D800406E000E416E880E0001606F130E616F52
:1004E800000E626F000E636F130EB0D0CD907DECDE
:1004F80009F00C0E1BEC08F080828090000E3E6E16
:10050800000E3F6E000E406E000E416E42B815D0D0
:10051800432A020E436411D0000E146EDA0E156ED3
:100528007F0E166E000E83EC08F0110E456EF50E68
:100538000B6E7E0E0C6EA3EC07F0030E436044D0E6
:100548000C0E4518D8A41CD042B20AD0000E146E66
:10055800330E156E7F0E166E000E83EC08F009D070
:10056800000E146EA90E156E7F0E166E000E83EC2B
:1005780008F0980E0B6E7C0E0C6EA3EC07F00FD0F3
:10058800000E146E8E0E156E7F0E166E000E83EC26
:1005980008F0FF0E0B6E7B0E0C6EA3EC07F054EC0C
:1005A80009F0000E3E6E000E3F6E000E406E000E0B
:1005B800416E880E0001606F130E616F000E626F4E
:1005C800000E636F0F0E456E4298429A429268D0B1
:1005D800030066D018EC09F0020E456E80800C0E00
:1005E8000B6E7E0E0C6EA3EC07F05AD07DEC09F072
:1005F8000C0E1BEC08F0000E146E530E156E7F0ED9
:10060800166E000E83EC08F0040E456E480E0B6E55
:100618007D0E0C6EA3EC07F0428642D081AE42A656
:100628003FD081AEFED742960A0E456EE10E0B6EA4
:100638007C0E0C6EA3EC07F033D064EC08F02B0EA4
:100648000B6E7E0E0C6EA3EC07F0030E456E28D0E1
:10065800CD907DEC09F0000E146EC20E156E7F0E63
:10066800166E000E83EC08F054EC09F0000E3E6E96
:10067800000E3F6E000E406E000E416E880E0001A7
:10068800606F130E616F000E626F000E636F050ED0
:10069800456E8090270E0B6E7C0E0C6EA3EC07F057
:1006A8004550000AD8B4FFD4010AD8B493D7030A36
:1006B800D8B49CD7010AD8B4CBD7070AD8B4AED7D8
:1006C800010AD8B4EDD7030AD8B407D5010AD8B4BB
:1006D80013D50F0AD8B4E3D5020AD8B4AED7010AA5
:1006E800D8B440D6070AD8B401D7010AD8B4D8D7A5
:1006F800030AD8B4FBD6010AD8B4D2D71F0AD8B493
:1007080025D6010AD8B464D7020ACAD72DC031F059
:10071800326A336A2C34313601E332803150366E16
:1007280030C031F0326A336A2F34313601E3328017
:100738003150356E3650D8B40BD03550365CD8B001
:100748000ED0365000083524316E180E316407D0AB
:100758002EC02BF02FC02CF030C02DF012003550D9
:10076800D8B40BD03650355CD8B00ED03550000810
:100778003624316E180E316407D02BC02BF02CC0F4
:100788002CF02DC02DF01200060E346E2DBE348EC6
:1007980030BE348C2C8EFF0E2B16FF0E2C16000E3E
:1007A8002D162F8EFF0E2E16FF0E2F16000E30164A
:1007B8003550365CD8B01BD0D8902E362F36303610
:1007C800350636503518D8B40DD0340634C031F05B
:1007D800070E3116D8B406D0EFD7D8902D322C3268
:1007E8002B32362A35503618D8B41FD0F6D73650A3
:1007F800355CD8B01AD0D8902B362C362D36360624
:1008080036503518D8B40DD0340634C031F0070E40
:100818003116D8B406D0EFD7D89030322F322E32D6
:10082800352A35503618D8A4F7D734AE0CD0FF0E79
:100838002B1AFF0E2C1AFF0E2D1A010E2B26000E56
:100848002C22000E2D2234AC0CD0FF0E2E1AFF0ED7
:100858002F1AFF0E301A010E2E26000E2F22000E20
:100868003022000E346E2B502E262C502F222D5065
:10087800302230AE0ED0FF0E2E1AFF0E2F1AFF0EAA
:10088800301A010E2E26000E2F22000E3022010EE5
:10089800346E2EC00AF02FC00BF030C00CF036C0FA
:1008A8000DF034C00EF0A4EC06F00AC02BF00BC01B
:1008B8002CF00CC02DF012000E0E116E000E126EF0
:1008C80062D0250E1318D8B409D00AC0D9FF0BC0BE
:1008D800DAFF13C0DFFF0A4A0B2A55D0000E106E4C
:1008E80042D011C0D9FF12C0DAFFDECF14F0DDCF3D
:1008F80015F0020E1126000E122214501510D8A45D
:100908001ED0F70E146E7F0E156E19D014C0F6FFA8
:1009180015C0F7FFF86A0AC0D9FF0BC0DAFF070E47
:10092800F76403D00800F55005D0F6CFE1FFF7CF04
:10093800E2FFE750DF6E144A152A0A4A0B2A14C050
:10094800F6FF15C0F7FFF86A070EF76403D0080032
:10095800F55005D0F6CFE1FFF7CFE2FFE7500009E9
:10096800D8B411D0D3D70CC0F6FF0DC0F7FF0C4A8E
:100978000D2A0800F5CF13F01350000AD8B40FD091
:10098800730AD8B4AED70CC0F6FF0DC0F7FF0C4AF7
:100998000D2A0800F5CF13F01350D8A492D70AC037
:1009A800D9FF0BC0DAFF000EDF6E12000CC00EF08C
:1009B8000F6A106A0B340E3601E30F800E50186E62
:1009C8001850D8A409D0000E0A6E000E0B6E000E47
:1009D8000C6E000E0D6E1200170E0E6E0AC00FF090
:1009E8000BC010F00CC011F00E28126E04D0D89075
:1009F800113210320F32122EFAD70F50136E0B8E9F
:100A0800FF0E0A16FF0E0B16000E0C160A50146E77
:100A18000B50156E0C50166E176A8E0E185E18AEB7
:100A280016D01850800A8F0FD8B009D0000E0A6E61
:100A3800000E0B6E000E0C6E000E0D6E1200D8909C
:100A48001732163215321432183EF9D715D0170E50
:100A580018640FD0000E0A6E000E0B6E000E0C6E9E
:100A6800000E0D6E1200D89014361536163617364D
:100A780018061850D8A4F7D71350D8B408D0171EA2
:100A8800161E151E146C000E15221622172214C0ED
:100A98000AF015C00BF016C00CF017C00DF01200CC
:100AA8000600E1CF04F0E2CF05F0F6CF06F0F7CF6D
:100AB80007F0F8CF08F0F5CF09F09EA058D0010E46
:100AC8003E26000E3F2240224122000160513E5C3A
:100AD80061513F586251405863514158D8B006D0CF
:100AE800F80ECF6E560ECE6ECD8040D0CD902ED063
:100AF8000E0E456E4290CC0E026E7D0E036ECCEC4F
:100B080007F034D0000E456E870E026E7E0E036E1F
:100B1800CCEC07F02BD0010E456E730E026E7C0EE6
:100B2800036ECCEC07F022D0000E456E4A0E026E22
:100B38007E0E036ECCEC07F019D0000E456EC20E87
:100B4800026E7E0E036ECCEC07F010D04550050AFD
:100B5800D8B4EAD70D0AD8B4CBD7050AD8B4DBD7AE
:100B6800020AD8B4CFD71C0AD8B4E7D79E9009C0D8
:100B7800F5FF08C0F8FF07C0F7FF06C0F6FF05C07D
:100B8800E2FF04C0E1FF499211001EC022F0236A6F
:100B9800246A1D34223601E323802250296E29500D
:100BA800D8A407D0000E1C6E000E1D6E000E1E6E1F
:100BB800120021C022F0236A246A2034223601E37D
:100BC800238022502A6E2A50D8A407D0000E1C6E0B
:100BD800000E1D6E000E1E6E1200000E266E000E18
:100BE800276E000E286E2A50890F295E1EC02AF033
:100BF80021502A1A800E2A161D8EFF0E1C16FF0E73
:100C08001D16000E1E16208EFF0E1F16FF0E201634
:100C1800000E2116180E256ED8902636273628364F
:100C28001F501C5C20501D5821501E58D8A007D0BA
:100C38001F501C5E20501D5A21501E5A2680D890E5
:100C48001C361D361E36252EE7D726C00AF027C0CB
:100C58000BF028C00CF029C00DF02AC00EF0A4EC4F
:100C680006F00AC01CF00BC01DF00CC01EF01200EC
:100C780042A064D0818081928194819681A805D018
:100C880081B8FED70001AA51120081AA05D081BA05
:100C9800FED70001AB51120081AC05D081BCFED754
:100CA8000001AC511200819081828194819681A8C3
:100CB80005D081B8FED70001AD51120081AA05D038
:100CC80081BAFED70001AE51120081AC05D081BCBB
:100CD800FED70001AF5112008190819281848196E4
:100CE80081A805D081B8FED70001B051120081AAB1
:100CF80005D081BAFED70001B151120081AC05D0F0
:100D080081BCFED70001B25112008190819281947A
:100D1800818681A805D081B8FED70001B3511200A1
:100D280081AA05D081BAFED70001B451120081AC66
:100D380005D081BCFED70001B5511200000E12008B
:100D48000D50D8B405D00A500B100C10D8A40CD0F4
:100D5800000E0A6E000E0B6E000E0C6E12000D2AAD
:100D6800D8900C320B320A32000E0A140F6E000EA5
:100D78000B14106EFE0E0C14116E0F501010111083
:100D8800D8B40CD0ECD70D2A010E0A26000E0B227F
:100D9800000E0C22D8900C320B320A32000E0A14C4
:100DA8000F6E000E0B14106EFF0E0C14116E0F5008
:100DB80010101110D8B406D0E6D70D06D8900A3610
:100DC8000B360C360BBE03D0020E0D60F6D70DA005
:100DD8000B9ED8900D320D500C120E50D8A40C8ECC
:100DE8000AC00AF00BC00BF00CC00CF01200949C67
:100DF800948E37C012F038C013F039C014F03AC0DE
:100E080015F038EC07F012C01FF013C020F014C022
:100E180021F0240E1C6EF40E1D6E470E1E6EC9ECDA
:100E280005F01CC02BF01DC02CF01EC02DF0000ECC
:100E38002E6E800E2F6EBF0E306E8AEC03F02BC024
:100E48003BF02CC03CF02DC03DF03BC00AF03CC04C
:100E58000BF03DC00CF0DAEC04F00A50AF6E200E37
:100E6800AC6E900EAB6E1200000E1B6E8E0E1A6EDC
:100E780015AE11D0151E141E131E126C000E13226F
:100E880014221522010E1B6E06D0D890153214328A
:100E9800133212321A2A000E1214166E000E131490
:100EA800176E000E1414186EFF0E1514196E1650D6
:100EB800171018101910D8A4E8D712C00AF013C0D8
:100EC8000BF014C00CF01AC00DF01BC00EF0A4EC0F
:100ED80006F00AC012F00BC013F00CC014F0120098
:100EE800C00EF66E120EF76E000EF86E00EEAAF047
:100EF80010EE13F00900F5CFEEFFE550E150FAE1EE
:100F0800020EF66E130EF76E000EF86E0900F5CF9E
:100F180047F00900F5CF48F000EE60F0360EEE6AB3
:100F2800E806FDE100EE3EF0090EEE6AE806FDE196
:100F380049904992000EF86E000109EF00F014D0B4
:100F48000BC0F6FF0CC0F7FFF86A070EF76403D072
:100F58000800F55005D0F6CFE1FFF7CFE2FFE750E4
:100F680071EC09F00B4A0C2A0BC0F6FF0CC0F7FF16
:100F7800F86A070EF76403D00800F55005D0F6CFDD
:100F8800E1FFF7CFE2FFE7500009D8B41200D8D745
:100F980014D002C0F6FF03C0F7FFF86A070EF76423
:100FA80003D00800F55005D0F6CFE1FFF7CFE2FFF8
:100FB800E75077EC09F0024A032A02C0F6FF03C0A3
:100FC800F7FFF86A070EF76403D00800F55005D05C
:100FD800F6CFE1FFF7CFE2FFE7500009D8B41200DF
:100FE800D8D7116E11C010F0F00E10168C500F0BE0
:100FF80010108C6E8C808C8200F08C92000E0B6E20
:10100800010E0A6E9FEC08F011C010F0103AF00EB5
:1010180010168C500F0B10108C6E8C8200F08C9276
:10102800000E0B6E030E0A6E9FEC08F01200116E94
:1010380011C010F0F00E10168C500F0B10108C6EA3
:101048008C908C8200F08C92000E0B6E010E0A6E52
:101058009FEC08F011C010F0103AF00E10168C50EA
:101068000F0B10108C6E8C8200F08C92000E0B6EA1
:10107800030E0A6E9FEC08F0120004D00A4A0B2AED
:101088000C4A0D2A0AC0D9FF0BC0DAFFDF500E6EDA
:101098000CC0D9FF0DC0DAFFDF5000080E240F6E18
:1010A8000F50D8A407D00AC0D9FF0BC0DAFFDF5011
:1010B800D8A4E4D70F500A6E0B6A0ABE0B061200BA
:1010C800829282948384839647C00AF048C00BF0CA
:1010D8009FEC08F0829282948394838647C00AF03A
:1010E80048C00BF09FEC08F0828282948394838638
:1010F80047C00AF048C00BF09FEC08F01200176ECA
:10110800000E186E020E176008D014500F0B8009DD
:10111800186E18501BEC08F007D014500F0BC009BC
:10112800186E18501BEC08F015C012F016C013F01A
:101138002DEC09F01200000E0D6E000E0C6E0FD093
:10114800000E0F6E000E0E6E0F5007E1A50E0E5C1E
:10115800D8B003D00E4A0F2AF7D70C4A0D2A0A50E6
:101168000C5C0B500D58D8B01200EAD710D00DC047
:101178000AF00EC00BF00FC0D9FF10C0DAFFDF5025
:101188000C6E42EC09F00D4A0E2A0F4A102A0FC0C5
:10119800D9FF10C0DAFFDF50D8B41200E8D7000E2C
:1011A800956E000E0B6E0F0E0A6E9FEC08F0020E85
:1011B8001BEC08F0280E1BEC08F0010E1BEC08F0E5
:1011C8000C0E1BEC08F0060E1BEC08F012000AC00F
:1011D8000EF00BC00FF004D00E4A0F2A0C4A0D2A4D
:1011E8000CC0D9FF0DC0DAFF0EC0E1FF0FC0E2FF4F
:1011F800DFCFE7FFE750D8B41200EED70AC010F0EF
:101208000BC011F008D010C0D9FF11C0DAFF0CC014
:10121800DFFF104A112A0E06D8A00F060E28F3E1A8
:101228000F28D8B41200EFD78292829483948386D1
:1012380047C00AF048C00BF09FEC08F082928294F5
:101248008384838647C00AF048C00BF09FEC08F0FF
:1012580012000AD012C0F6FF13C0F7FF0800F550BD
:10126800F5EC07F0124A132A12C0F6FF13C0F7FF75
:101278000800F5500009D8B41200ECD70AC0A9FF3D
:101288000CC0A8FFA69EA69CA684F29E550EA76E2B
:10129800AA0EA76EA682F28EA1A8FED7A198120068
:1012A800F28EF28C9D809E90800ECD6EF80ECF6EE1
:1012B800560ECE6ECD801200313233343536373883
:0B12C800392A30233132333738390027
:1012D4000AC0A9FFA694A69EA680A85012000A6E72
:1012E4009EA8FED70AC0ADFF1200016E9EA8FED7CD
:1012F40001C0ADFF1200010E1BEC08F012006400E7
:107BFE000054494D454F55545F4E4F5F50574420EA
:107C0E002D3E20574149545F50524553535F4F50BC
:107C1E00454E5F5357200D0A00444F4F525F434C61
:107C2E004F534544202D3E2054494D455F494E5FEC
:107C3E00444F4F525F434C4F534544200D0A004D65
:107C4E00415443485F434F4E4649475F5057442087
:107C5E002D3E20444953505F454E5445525F505778
:107C6E0044200D0A00574149545F444F4F525F4F15
:107C7E0050454E494E47202D3E20444F4F525F4FA8
:107C8E0050454E494E47200D0A00494E56414C492B
:107C9E00445F505744202D3E20574149545F505267
:107CAE004553535F4F50454E5F5357200D0A0050BA
:107CBE00524F434553535F505744202D3E2057415A
:107CCE0049545F444F4F525F4F50454E494E4720E7
:107CDE000D0A00574149545F444F4F525F434C4F7A
:107CEE005345202D3E20444F4F525F434C4F534936
:107CFE004E47200D0A00545950494E475F50574485
:107D0E00202D3E204D415443485F434F4E46494738
:107D1E005F505744200D0A0050524F434553535F56
:107D2E00505744202D3E20444953505F5057445FD6
:107D3E004348414E4745200D0A00444F4F525F4F76
:107D4E0050454E4544202D3E20574149545F444FE7
:107D5E004F525F434C4F5345200D0A00444F4F5234
:107D6E005F434C4F534544202D3E20444953505FB2
:107D7E00454E5445525F505744200D0A0050524F05
:107D8E00434553535F505744202D3E204449535092
:107D9E005F454E5445525F505744200D0A004449EA
:107DAE0053505F454E5445525F505744202D3E2050
:107DBE00545950494E475F505744200D0A005459AC
:107DCE0050494E475F505744202D3E2054494D4553
:107DDE004F55545F4E4F5F505744200D0A00636855
:107DEE00616E676564205077643A20257320777240
:107DFE0069746520454550524F4D200D0A00444F81
:107E0E004F525F4F50454E494E47202D3E20444F16
:107E1E004F525F4F50454E4544200D0A00444F4F80
:107E2E00525F434C4F53494E47202D3E20444F4FF7
:107E3E00525F434C4F534544200D0A0054494D4563
:107E4E005F494E5F444F4F525F434C4F5345442062
:107E5E002D3E20494E4954200D0A0050524F4345A5
:107E6E0053535F505744202D3E20494E56414C49A6
:107E7E00445F505744200D0A00574149545F5052F9
:107E8E004553535F4F50454E5F5357202D3E20496B
:107E9E004E4954200D0A00545950494E475F5057D1
:107EAE0044202D3E2050524F434553535F5057446C
:107EBE00200D0A00444953505F5057445F434841D8
:107ECE004E4745202D3E20494E4954200D0A00496B
:107EDE004E4954202D3E20574149545F4F50454E38
:107EEE005F5357200D0A00202D3E2045584345452F
:107EFE00445F4D41585F5245545259200D0A00457A
:107F0E006E7465726564205077643A202573200D77
:107F1E000A00436F7272656374205077643A2025AD
:107F2E0073200D0A00496E76616C6964205061738E
:107F3E0073776F726400436F6E666967206D6F644E
:107F4E0065200D0A00507265737320436C6F736564
:107F5E0020535700416363657373204772616E74DB
:107F6E00656400456E7465722050617373776F722D
:107F7E0064005072657373204F70656E2053570006
:107F8E0054696D656F757420456E74727900536512
:107F9E00742050617373776F726400507764206D34
:107FAE0069736D6174636800507764206368616EF5
:107FBE0067656400446F6F7220436C6F7365640075
:107FCE00436F6E6669726D20507764004D61782044
:107FDE00332052657472790053616D652050776459
:107FEE000057454C434F4D4500286E756C6C29006B
:017FFE000082
:020000040020DA
:08000000FFFFFFFFFFFFFFFF00
:020000040030CA
:0E00000000091F1EFF0181FF0FC00FE00F401F
:00000001FF
